:20006D00AE82AF837C007D00C3EC9EED9F50147A7D7B001ABAFF011BEA4B70F70CBC00E82E
:20008D000D80E522AF828F061FEE70FA22D2B775820A120091C2B7758296120091D2B7758C
:2000AD0082140200917F007E08C2B7EFC313FFD2B730B703430780758214C007C0061200E1
:2000CD0091D006D007DEE28F8222AF827E08C2B7EF540124FF92B730B710758203C007C08A
:2000ED0006120091D006D007800E758214C007C006120091D006D007D2B7EFC313FFDECE2E
:20010D002212009A7582CC1200D77582441200D775820A12009112009A7582CC1200D775C3
:20012D0082BE1200D775820A1200911200B2AF82C0071200B2AE82D0078E05E4FEFCEF2ED0
:17014D00FEEC3DC4CEC4540F6ECE540FCE6ECE30E30244F08E822297
:20016400858280C2A6C2A5D2A7900064120250C2A712017BD2A7229000640202507582384B
:2001840012016475820E120164758201120164758280020164858280D2A6C2A5D2A79000AC
:2001A4000A120250C2A712017BD2A722AD82AE83AFF0C007C006C00512049CAB82AC83D00C
:2001C40005D006D007EB60278D828E838FF01204B4FCA3AD82AE838C82C007C006C005C06F
:2001E40003120199D003D005D006D0071B80D622AF82BF02087582C012016480067582803F
:200204001201647F00C3EF9508500D758214C007120164D0070F80ED22AE82AF837C007D1F
:20022400007A007B00C3EA9EEB64808FF063F08095F050070ABA00ED0B80EA0CBC00010D81
:20024400C3EC94E8ED6480948340D622AE82AF837C007D00C3EC9EED64808FF063F08095EF
:0B026400F050070CBC00ED0D80EA22FA
:0400000002001132B7
:03000B000203EFFE
:03006A0002000E83
:03000E0002038466
:20026F00758901758CEE758A0075A882C28DD28CE4F51AF51BF51C22AF827508007582015A
:20028F00C0071201F490054275F0801201B0D0077E00751F0A8E208F828E83C007C00612A0
:2002AF000506AC8274302CF582120199D006D007751F0A7520008F828E831204D0AE827477
:2002CF00302EF5821201997582DF1201997582431201997508007582021201F490054C7553
:2002EF00F0801201B0AE1D7F00751F0A8F208E828F83C007C006120506AC8274302CF582E4
:20030F00120199D006D007751F0A7520008E828F831204D0AE8274302EF58212019975821E
:20032F00DF12019990055175F0801201B0AE1E7F00751F0A8F208E828F83C007C006120537
:20034F0006AC8274302CF582120199D006D007751F0A7520008E828F831204D0AE827430AB
:20036F002EF5821201997582DF12019990055875F0800201B012009A12018112026F7F00D4
:20038F007EFFC2A9C007C00612010E858209D006D007D2AB74EC25094008751B05751C0082
:2003AF00801474E225094008751B0A751C008006751B0F751C00C3EF95095002AF09C3E5EB
:2003CF00099E5002AE098F1D8E1E850982C007C00612028790006412021DD006D00780A2DA
:2003EF00C0E0C007C006C0D075D000758CEE758A00051A7414B51A03751A00AE1A7F00C3EC
:17040F00EE951BEF951C5004D2908002C290D0D0D006D007D0E032DF
:1805420043757272656E743A20004D61783A0043204D696E3A00430000
:06004000E478FFF6D8FD94
:20001E007900E94400601B7A0090055A780175A000E493F2A308B8000205A0D9F4DAF27529
:02003E00A0FF21
:20042600E51F452060467A01E51F25E0F51FE520334012F520E582951FE583952040030AEB
:2004460080E6C3E52013F520E51F13F51FC3E582951FF5F0E58395204005F58385F082C3BE
:0D046600E52013F520E51F13F51FDAE12254
:200046007800E84400600A790175A000E4F309D8FC7800E84400600C7900900001E4F0A3B8
:04006600D8FCD9FAEF
:200473007A10E4FBFCE58225E0F582E58333F583EB33FBEC33FCEB951FF5F0EC952040066F
:09049300FCABF0438201DADD222A
:18049C00AA82AB831204B46003A380F8C3E5829AF582E5839BF58322CE
:0D00110075812012053EE582600302000E9D
:1C04B40020F71430F6148883A88220F507E6A88375830022E280F7E49322E02257
:2004D000C2D5E58330E70DD2D5E4C39582F582E49583F583E52030E70BE4C3951FF51FE41F
:1604F0009520F52012042630D50BE4C39582F582E49583F5832215
:20050600C2D5E58330E70DD2D5E4C39582F582E49583F583E52030E70DB2D5E4C3951FF562
:180526001FE49520F52012047330D50BE4C39582F582E49583F583228C
:04053E0075820022A0
:00000001FF
