:10006700858280C2A6C2A5D2A7900064120153C29E
:10007700A712007ED2A7229000640201537582382E
:1000870012006775820E120067758201120067758C
:100097008280020067858280D2A6C2A5D2A790007F
:1000A7000A120153C2A712007ED2A722AD82AE83E5
:1000B700AFF0C007C006C005120264AB82AC83D0A4
:1000C70005D006D007EB60278D828E838FF0120252
:1000D7007CFCA3AD82AE838C82C007C006C005C07E
:1000E7000312009CD003D005D006D0071B80D62270
:1000F700AF82BF02087582C01200678006758280D2
:100107001200677F00C3EF9508500D758214C00772
:10011700120067D0070F80ED22AE82AF837C007D8F
:10012700007A007B00C3EA9EEB64808FF063F08067
:1001370095F050070ABA00ED0B80EA0CBC00010DE0
:10014700C3EC94E8ED6480948340D622AE82AF83FB
:100157007C007D00C3EC9EED64808FF063F080959A
:0B016700F050070CBC00ED0D80EA22F8
:03000000020006F5
:08005F00E4F509F50A020003B3
:0300030002023FB7
:10017200858210858311902710120247AE82AF83C9
:100182007C007D00C3EC9EED64808FF063F080956F
:10019200F050070CBC00ED0D80EA22E4F509F50AE7
:1001A20074FEF590B59001229003E812017274FE7C
:1001B200B59003020233AE907F0074F05EF50B8FB0
:1001C2000C7470B50B06E4B50C02802374B0B50B49
:1001D20006E4B50C02802974D0B50B06E4B50C0216
:1001E200802F74E0B50B06E4B50C028035804275B1
:1001F200820112006790029C75F0801200B3803178
:1002020075820112006790029F75F0801200B38020
:10021200207582011200679002A275F0801200B36D
:10022200800F7582011200679002A575F08012009E
:10023200B374FEB590FB750901750A0022120084A1
:0502420012019D80FB8C
:0C029C00303400303800313200313600C0
:06003500E478FFF6D8FD9F
:100013007900E94400601B7A009002A8780175A07A
:1000230000E493F2A308B8000205A0D9F4DAF2754C
:02003300A0FF2C
:10024700E5828510F0A4C582C0F08511F0A4D0F036
:0D02570025F0C5838510F0A42583F58322D2
:10003B007800E84400600A790175A000E4F309D860
:10004B00FC7800E84400600C7900900001E4F0A318
:04005B00D8FCD9FAFA
:10026400AA82AB8312027C6003A380F8C3E5829A5E
:08027400F582E5839BF583226E
:0D000600758111120298E58260030200036B
:10027C0020F71430F6148883A88220F507E6A883AB
:10028C0075830022E280F7E49322E022758200223B
:00000001FF
