:0400000002001932AF
:03000B000200B838
:030013000200C91F
:0300720002001673
:0300160002007570
:20007500E4F508F509F512C2A7758000758902758C19758A00D2B075A886C28DD28CD28DDD
:200095007402B51213C37420950E7483850FF063F08095F04002D2A7E512243740E075127A
:2000B5000080DBC0E0C0D00508E4B508020509D0D0D0E032C0E0C007C000C0D075D000C2A2
:2000D500AA0512E51224FC5003751203E5122512240AF8A60808A609E4F508F509D2AAD072
:0800F500D0D000D007D0E032AA
:06004800E478FFF6D8FD8C
:200026007900E94400601B7A00900101780175A000E493F2A308B8000205A0D9F4DAF2757E
:02004600A0FF19
:20004E007800E84400600A790175A000E4F309D8FC7800E84400600C7900900001E4F0A3B0
:04006E00D8FCD9FAE7
:0D0019007581121200FDE5826003020016E1
:0400FD0075820022E6
:00000001FF
