:0400000002001132B7
:03000B000200836D
:03006A0002000E83
:03000E0002006D80
:20006D00E4F508F509758901758C4CF58A75A882C28DD28C80FEC0E0C0D0758C4C758A0083
:20008D000508E4B5080205097414B50806E4B5090280028007E4F508F509B2A0D0D0D0E01C
:0100AD003220
:06004000E478FFF6D8FD94
:20001E007900E94400601B7A009000B2780175A000E493F2A308B8000205A0D9F4DAF275D6
:02003E00A0FF21
:200046007800E84400600A790175A000E4F309D8FC7800E84400600C7900900001E4F0A3B8
:04006600D8FCD9FAEF
:0D0011007581091200AEE582600302000E49
:0400AE007582002235
:00000001FF
