:06000000020011020119CB
:03000B00020108E7
:03006A0002000E83
:03000E000200A04D
:20006D00AE82AF837C007D007A007B00C3EA9EEB64808FF063F08095F050070ABA00ED0B1F
:20008D0080EA0CBC00010DC3EC94E8ED6480948340D622E4F521F522F523F524F56BF580B1
:2000AD00758902758C19F58AD28A75A883C28DD28CD2B2D2A77402B56B14C3E5299428E5D8
:2000CD002A648094805007E4F56BF521F522C37423952174808522F063F08095F050D6E52B
:2000ED004B24FF92A77E107F00C3EE9418EF6480948050C10EBE00F10F80EEC0E0C0D0057B
:20010D0023E4B523020524D0D0D0E032C020C0E0C0F0C082C083C007C006C005C004C003B8
:20012D00C002C001C000C0D075D000C2AA056BE56B256BFF2425F8A62308A624E56B24FD92
:20014D00505574DD256B404F7407952374808524F063F08095F04014E5212521FEE522338D
:20016D00FFEE242BF876000876008023C37407952374808524F063F08095F05012E521253F
:20018D0021FEE52233FFEE242BF876010876000521E4B521020522E56B24DC500DC2A79021
:2001AD00001412006DD2A7756B00E4F523F524D2AAD0D0D000D001D002D003D004D005D056
:0E01CD0006D007D083D082D0F0D0E0D0203210
:06004000E478FFF6D8FD94
:20001E007900E94400601B7A009001DF780175A000E493F2A308B8000205A0D9F4DAF275A8
:02003E00A0FF21
:200046007800E84400600A790175A000E4F309D8FC7800E84400600C7900900001E4F0A3B8
:04006600D8FCD9FAEF
:0D00110075816B1201DBE582600302000EB9
:0401DB007582002207
:00000001FF
