:03000000020006F5
:03005F0002000399
:030003000201797E
:10006200858280C2A6C2A5D2A790006412014EC2A8
:10007200A7120079D2A72290006402014E7582383D
:1000820012006275820E12006275820112006275A0
:100092008280020062858280D2A6C2A5D2A7900089
:1000A2000A12014EC2A7120079D2A722AD82AE83F4
:1000B200AFF0C007C006C0051201ECAB82AC83D022
:1000C20005D006D007EB60278D828E838FF0120257
:1000D20004FCA3AD82AE838C82C007C006C005C0FB
:1000E20003120097D003D005D006D0071B80D6227A
:1000F200AF82BF02087582C01200628006758280DC
:100102001200627F00C3EF9508500D758214C0077C
:10011200120062D0070F80ED22AE82AF837C007D99
:10012200007A007B00C3EA9EEB64808FF063F0806C
:1001320095F050070ABA00ED0B80EA0CBC00010DE5
:10014200C3EC94E8ED6480948340D622AE82AF8300
:100152007C007D00C3EC9EED64808FF063F080959F
:10016200F050070CBC00ED0D80EA227582180200E7
:100172006275821C02006212007F90022475F08078
:100182001200AE7582C012006290023575F08012C4
:1001920000AE75820E12006290001E12011B7E00DC
:1001A2007F00C007C00612016D90003212011BD001
:1001B20006D0070EBE00010FC3EE9410EF648094C8
:1001C2008040DF7E007F00C007C0061201739000EE
:1001D2003212011BD006D0070EBE00010FC3EE94EF
:0A01E20010EF6480948040DF80B4C9
:1002240048656C6C6F20456C69746563682036356D
:10023400002A2A2A2A2A2A2A2A2A2A2A2A2A2A2A44
:020244002A008E
:06003500E478FFF6D8FD9F
:100013007900E94400601B7A00900246780175A0DC
:1000230000E493F2A308B8000205A0D9F4DAF2754C
:02003300A0FF2C
:10003B007800E84400600A790175A000E4F309D860
:10004B00FC7800E84400600C7900900001E4F0A318
:04005B00D8FCD9FAFA
:1001EC00AA82AB831202046003A380F8C3E5829A4F
:0801FC00F582E5839BF58322E7
:0D000600758108120220E5826003020003EC
:1002040020F71430F6148883A88220F507E6A88323
:1002140075830022E280F7E49322E02275820022B3
:00000001FF
